:020000040000fa
:080000000002040000000000f2
:020000040000fa
:1000080090020000900200009002000090020000a0
:100018009002000090020000900200009002000090
:100028009002000090020000900200009002000080
:100038007a0d00009002000090020000900200007b
:100048009002000090020000900200009002000060
:100058009002000090020000900200009002000050
:100068009002000090020000900200009002000040
:100078009002000090020000900200009002000030
:10008800820d000090020000900200009002000023
:100098009002000090020000900200009002000010
:1000a800900200009002000090020000380d00004d
:1000b80090020000900200009002000090020000f0
:1000c80090020000900200009002000090020000e0
:1000d80090020000900200009002000090020000d0
:1000e80090020000900200009002000090020000c0
:1000f80090020000900200009002000090020000b0
:10010800900200009002000090020000900200009f
:10011800900200009002000090020000900200008f
:10012800900200009002000090020000900200007f
:10013800900200009002000090020000900200006f
:10014800900200009002000090020000900200005f
:10015800900200009002000090020000900200004f
:10016800900200009002000090020000900200003f
:10017800900200009002000090020000900200002f
:10018800900200009002000090020000900200001f
:10019800900200009002000090020000900200000f
:1001a80090020000900200009002000090020000ff
:1001b80090020000900200009002000090020000ef
:1001c80090020000900200009002000090020000df
:1001d80090020000900200009002000090020000cf
:1001e80090020000900200009002000090020000bf
:0801f8009002000090020000db
:020000040000fa
:10020800900200009002000090020000900200009e
:10021800900200009002000090020000900200008e
:10022800900200009002000090020000900200007e
:100238007a0d000090020000900200009002000079
:10024800900200009002000090020000900200005e
:10025800900200009002000090020000900200004e
:10026800900200009002000090020000900200003e
:10027800900200009002000090020000900200002e
:10028800820d000090020000900200009002000021
:10029800900200009002000090020000900200000e
:1002a800900200009002000090020000380d00004b
:1002b80090020000900200009002000090020000ee
:1002c80090020000900200009002000090020000de
:1002d80090020000900200009002000090020000ce
:1002e80090020000900200009002000090020000be
:1002f80090020000900200009002000090020000ae
:10030800900200009002000090020000900200009d
:10031800900200009002000090020000900200008d
:10032800900200009002000090020000900200007d
:10033800900200009002000090020000900200006d
:10034800900200009002000090020000900200005d
:10035800900200009002000090020000900200004d
:10036800900200009002000090020000900200003d
:10037800900200009002000090020000900200002d
:10038800900200009002000090020000900200001d
:10039800900200009002000090020000900200000d
:1003a80090020000900200009002000090020000fd
:1003b80090020000900200009002000090020000ed
:1003c80090020000900200009002000090020000dd
:1003d80090020000900200009002000090020000cd
:1003e80090020000900200009002000090020000bd
:0803f8009002000090020000d9
:020000040000fa
:100400004f9220000e7724000e01880000000000ab
:100410000c000700a085210001002000110007004a
:10042000000020000000e000020032000000020096
:100430000000000086180200000000000040da0002
:100440000000fe004440a900000320000000e0007e
:100450000300320000002000a00188004440a800f2
:100460000000060091018800800078000000eb0089
:1004700015003700e280400032a0b4009101ba00bc
:10048000e280400032a0b4009102ba00e280400055
:1004900032a0b4000002eb00472bde00f507b200eb
:1004a000602ce10004003a000059eb008301e900f0
:1004b000fdff3e00040037006128e100010032002a
:1004c0000082eb00040007001101ba000200e00006
:1004d000e8ff3a00000006003159ba008301e90044
:1004e0000c0032002159ba008301e90008003200f3
:1004f0000400e00003003a00e280400032a0b400b3
:10050000f5ff370011d9ba008301e900faff3a007c
:100510008100e800e180400032a0b4000000060045
:100520000040da000000fe00200e8800310e880036
:10053000430e8800540e8800020e8800000006005a
:1005400061016100530e80000300a10082817100ef
:10055000530e88000000e90000004000621d2000ea
:100560000131780000000600600e880000000600df
:1005700003f0a200889fbe008a9fbe008c1f7800f7
:10058000b8000700bf0033006450e1004f003200a4
:100590006420e1005200320003826c0007003b003f
:1005a0000905d0000306d000820f54000c065d0040
:1005b0000200390002003200890178000306780049
:1005c0008582550004003d000003fd008103fd000d
:1005d0008502ea008b854200840f720002003b0016
:1005e00060001000e08018006011b8000005eb000a
:1005f0007a28e1000a00390006007800c75ddd00b6
:10060000f707b200878075002d00370082817100e6
:100610000a017800610560008180d1000080d3006c
:100620008502e900f9ff3b0006044000878448008a
:1006300002003b0060041400e0841c000988a30051
:10064000070032008a8171008281710061016400bb
:100650008904d1000884d3008b05e8001700370017
:100660000978a30013003a000b00e00013003400e7
:100670008b05e9000804440089844c000a44740096
:100680000978a3000d003a000b00e00007003400d9
:100690008b05e9000804440089844c0001003a00fd
:1006a0000b0020000978a300f7ff32000001eb00e7
:1006b00002003700828171000a0178002e000700d5
:1006c0000cf0a70001f0a000770037006420e100e3
:1006d00002003a00838f6c00770033000801be00ef
:1006e0000200be00700037000001be004800070095
:1006f0000470a70003f0a1006509b10016003200e4
:100700000d0035006828e10006003500f0ff2f00dd
:10071000f1ff27000300e00013003b000100280068
:100720000000050000004000818048008502e900cb
:10073000fcff3a0008003700f88f420002003c003e
:100740008000eb00000005008100d1000080d30094
:100750008502e800fcff3a000300e00002003b00d5
:1007600060001000e0801800000006004f89de00e5
:1007700082017800870037008100200061805500e9
:100780000b003d000b00200061fe2f000100e10086
:100790001d00340082817100610164008904d10070
:1007a0000884d3000000e800faff3a00710020003e
:1007b0006100640003007000020060000900320064
:1007c00061044400e0844c000988a5000500320063
:1007d0008b05e8006808e10002003a008904d100b6
:1007e0000884d300f20f20000258e10005003d000c
:1007f000c75ddd00f907b200898075000800780048
:10080000000006000bf827008b00780000000500b0
:10081000c70ade00f107b200f50fb200080032008f
:10082000e1cf4200020032000170a0002400050068
:10083000810f70000100320004080500440005002b
:10084000810f700002003a00140005008502e900e3
:100850000000400081c04800fcff3b000170a00088
:10086000240005000004be00e9ff07000003be00ed
:100870000405be000200be00e5ff0700844f7500be
:10088000000006000200be006450e10005003600d2
:100890006420e100020036000968a30001003a006c
:1008a0000800be000160a0004f0678004f05be00a2
:1008b0004f04be0000000600f0ff2f00f1ff2700ec
:1008c000f9ff3700889fbe008a9fbe008c1f78000a
:1008d000e4ff0700ebff330003866c006450e10087
:1008e000240032006420e100270032006150e10062
:1008f000220032006120e100210032008b8542009d
:10090000eb07b1000134b800003ab8000804420017
:1009100089844a00013ab8000030b800888040005d
:1009200009014a00040033000000400081804800b3
:10093000020149008b05e900c909dd00830170004f
:100940000100320013002000c814de004814dd004e
:100950004709de001200b200c808de0008847000fb
:1009600085ff070001f0a1000cf0a70001f0a00036
:10097000cdff37006120e100cfff32000801be004b
:100980000200be00f7ff37006150e100fcff3a00b3
:10099000c9ff3700881f7800030478000300e000d7
:1009a00007003d0060001000e080180060011900a1
:1009b000e081190002003b0001f02d000300370028
:1009c0000400070008f0a70001f0a0004f04780021
:1009d00000000600889fbe008a9fbe000082700053
:1009e0000402710004827100260032000004be007f
:1009f0000200be006011b8006b09200095022000c3
:100a00000182cf000a0039000541b1000082cf0009
:100a1000070039000541b1000982cf000400390008
:100a20000541b1000882cf00010039000541b10045
:100a300005425200120032000a003b008281710020
:100a4000610164008100d1000080d3008984d3005b
:100a50000884d3008b05e8000442e800f7ff3a0061
:100a6000070037000804440089844c000000480057
:100a7000818048008b05e9000442e900f9ff3a0053
:100a80003dff07004f05be004f04be0000000600fa
:020000040000fa
:100a900000000000000000000000000000a00000b6
:100aa0000000000012000000000000000200000032
:100ab0000000000002000000000000000000000034
:100ac000000000000000000020410000cdcc00002c
:100ad000cc3d00006f120000033b00000008000046
:100ae000f401000000000000000000000000000011
:020000040000fa
:100af0000000fa000000eb00001f88000002220046
:100b0000001c880020442000401c88007000200049
:100b1000501c880060042000101c88000078200011
:100b2000201c880081e3a8000080fa000000060075
:100b30000000fa000000eb00001f88000002200007
:100b4000c01c880000442000001d880070002000a8
:100b5000101d880020022000d01c88000078200092
:100b6000e01c880099e3a8000080fa00000006005d
:100b70000000fa000164a80081208000000c200021
:100b800000807000802088008120800000fc2f0001
:100b90000080600080208800912080008003200079
:100ba000008070009020880012e4a800912080004e
:100bb000f08f2f00808060000050200000807000c7
:100bc000902088009120800080ff2f00008060002e
:100bd0000020a0009020880012c4a8000080fa0025
:100be000000006000000fa0001208000f08f2f00b6
:100bf000808060000040200000807000002088009d
:100c00000000000001208000000e200080806000b5
:100c100000082000808f5000faff3a00d4ff070040
:100c200031208000f0ff2100808060000000220061
:100c300000807000302088008002eb00140020004b
:100c40008000eb00f22120000300200010002000b3
:100c5000230007001400200011002000f2ff2000f4
:100c60000300200010002000df00070001208000aa
:100c7000f08f2f000080600000208800000000003e
:100c800001208000000e200000806000e00f500076
:100c9000fbff3a000000eb0050218800502180004b
:100ca0004021880040218000102188001021800010
:100cb0000021880030e4a80031e4a90080218000f0
:100cc0003000b300802188008121800000302000a6
:100cd00000807000802188000080fa00000006007b
:100ce0002000fa00200f9800320f9800430f980060
:100cf000510f9800640f9800750f98006000b800bd
:100d0000008fbe006000b8002007980031079800ef
:100d10006000b80040079800510798000004a80040
:100d20002e08900000004000000040008000780085
:100d30000044200000804000600798002e089000ca
:100d40004280de0000004000800078000042200069
:100d500000804000700798002e0890004380de005d
:100d600000004000800078008041200000804000aa
:100d7000000f980040412000100f98005e0890007e
:100d8000e10f500049003a003e099000ce09900062
:100d9000f0ff2f000100200002027800030178001c
:100da0008001780001007800030262000000610009
:100db00001002000c000dd00000020000001be0096
:100dc0006120b80000017100818171002207980044
:100dd000330798003e089000ce0890004088de005f
:100de000cf80de000001be003000200001002000a6
:100df0000202780003017800800178000100780089
:100e0000030262000000610001002000c000dd005c
:100e1000000020000001be006120b8000001710048
:100e20008181710042079800530798003e089000a6
:100e3000ce0890004288de00cf80de000001be00b8
:100e4000f07f20000100200002027800830178007a
:100e5000000178000100780002016200008061005a
:100e600001002000c000dd0000002000008fbe0057
:100e70006110b8001e1f70001e9770001e007800e1
:100e8000c500dd004e00900000804000e8004000fa
:100e90006e009000010878006e0090000080e8006d
:100ea000ae00900001087800190037003e0990005c
:100eb000ce099000f07f200001002000020278009f
:100ec00083017800000178000100780002016200cf
:100ed0000080610001002000c000dd000000200053
:100ee000008fbe006110b8001e1f70001e977000ba
:100ef0001e007800c500dd006e009000010878003b
:100f00006e0090000080e8008000eb00010878008f
:100f10007e009000900078002e0890006300600032
:100f20004200dd00f20020000010dd000080ea0039
:100f3000808060007e009000010878002e089000fc
:100f4000630060004200dd00ee0890008008dd00d4
:100f50007e00900010007800808070007e0090007d
:100f6000010878000e089000900078002e0890008c
:100f70006700600000004000320020000010dd002b
:100f80000080ea00808060000e0890000108780070
:100f90002e0890006700600000004000fe089000ee
:100fa0008008dd000e08900010007800808070003e
:100fb0000e08900001087800110020002e08900013
:100fc0000008dd00800078001e0890001000780006
:100fd000808070001e089000010878000004a900bd
:100fe0000080fa00000006001800fa007007980060
:100ff000020f9800130f9800210f9800340f9800eb
:101000006000b800008fbe006000b80020079800a4
:10101000310798006000b800400798005107980019
:101020000004a8007e009000000040000000400086
:101030008000780000432000008040006007980096
:101040003e089000e10f500053003a000e09900056
:101050009e099000f0ff2f0001002000020278009e
:10106000030178008001780001007800030262002b
:101070000000610001002000c000dd000000200031
:101080000001be006120b800000171008181710083
:1010900022079800330798000e0890009e089000e1
:1010a0004088de00cf80de000001be00300020005e
:1010b000010020000202780003017800800178001e
:1010c00001007800030262000000610001002000be
:1010d000c000dd00000020000001be006120b8005b
:1010e0000001710081817100420798005307980048
:1010f0000e0890009e0890004288de00cf80de003f
:101100000001be00f07f20000100200002027800f4
:10111000830178000001780001007800020162007c
:101120000080610001002000c000dd000000200000
:10113000008fbe006110b8001e1f70001e97700067
:101140002e089000e10f500008003a001e007800c1
:10115000c500dd004e00900000804000e800400027
:101160006e00900001087800060037001e0078002d
:10117000c500dd004e009000808040006e009000b1
:10118000010878006e0090000080e800ae0090003a
:1011900001087800220037000e0990009e09900097
:1011a000f07f200001002000020278008301780017
:1011b00000017800010078000201620000806100f7
:1011c00001002000c000dd0000002000008fbe00f4
:1011d0006110b8001e1f70001e9770002e0890004e
:1011e000e10f500006003a001e0078004500dd00c7
:1011f000e80040006e00900001087800040037000d
:101200001e007800c500dd006e0090000108780027
:101210006e0090000080e8008000eb00010878007c
:101220000004a9000080fa00000006002200fa0075
:10123000400f9800520f9800630f9800710f9800ac
:10124000041798006000b800008fbe006000b8006e
:1012500020079800310798006000b8004007980008
:10126000510798006000b800600798007107980067
:101270006000b800000f9800110f98006000b800df
:10128000200f9800310f98007e089000e00f50006a
:10129000460032005e099000ee099000f003200045
:1012a000010020000202780003017800800178002c
:1012b00001007800030262000000610001002000cc
:1012c000c000dd00000020000001be006120b80069
:1012d0000001710081817100020f9800130f9800c6
:1012e0005e089000ee0890004a09dd004600de002e
:1012f00000007100c688de000001be00f0ff200083
:1013000001002000020278000301780080017800cb
:10131000010078000302620000006100010020006b
:10132000c000dd00000020000001be006120b80008
:101330000001710081817100220f9800330f980025
:101340005e089000ee0890004288de00cf80de004c
:101350000001be00f07f20000100200002027800a2
:101360000301780080017800010078000302620028
:101370000000610001002000c000dd00000020002e
:101380000001be006120b800000171008181710080
:1013900062079800730798002e089000be0890001e
:1013a0002007980031079800130037005e0990006d
:1013b000ee099000f07f200001002000020278007a
:1013c00003017800800178000100780003026200c8
:1013d0000000610001002000c000dd0000002000ce
:1013e0000001be006120b800000171008181710020
:1013f00062079800730798000e109000e10f5000ec
:101400001a003a006e009000fe0090004209dd00d4
:10141000ce01de00830171004201dd007e089000f4
:101420000100200000007100818071000001be00f9
:101430000210a000028fbe000e0890009e089000cf
:101440004a09dd00c601de00830171004a01dd00aa
:101450000020200001002000000071008180710048
:101460004007980051079800120037006e00900066
:10147000fe0090004209dd00ce01de008301710014
:101480004201dd007e08900001002000001f710075
:10149000019771000e0990009e0990004a18dd0026
:1014a000c610de00810070004a10dd004007980081
:1014b000510798007e089000e00f500009003200ac
:1014c0001e007800800078000110a0004e089000f7
:1014d0004401dd000078240000004100010878008c
:1014e000060037009e0078004e0890004401dd00a1
:1014f000007824000000410001087800ae00900050
:101500004e0890004401dd002078240000004100d6
:1015100001087800ce0090004e0890004401dd00e4
:101520004078240000004100010878000080fa00a3
:10153000000006000c00fa00000f78001107980068
:101540002207980033079800440798005507980031
:101550001e0078004400dd00e40040000078240014
:10156000008040009000780000ff2f008080600025
:101570001e009000808040001e0078004401dd00c5
:101580004078240000004100010878001e00780027
:10159000c400dd006078240000804000ae009000b0
:1015a000010878001e007800c400dd008078240067
:1015b00000804000be009000010878001e00780006
:1015c000c400dd00a078240000804000ce00900020
:1015d000010878001e007800c400dd00c0782400f7
:1015e00000804000de009000010878000080fa00d2
:1015f000000006000400fa00100798000004a8008c
:1016000040412000000f78001e0078009000780014
:10161000120020001e0090000010dd000080ea0093
:10162000808060001e007800010878000004a90096
:101630000080fa00000006000a00fa004007980047
:101640000000eb00000f78000000eb00100798008e
:101650006000b80020079800310798004e00900005
:1016600020009000c400dd000078240000804000cd
:1016700010007800610f60004e0090002000900084
:10168000c400dd00007824000080400010007800d5
:1016900062006000100798001e007800e00f500004
:1016a00011003a004e00900020009000c400dd00c0
:1016b000007824000080400090007800c0ff2100e6
:1016c000008060004200de00010020004e0190001a
:1016d0003001980041019800ce00900040c0b30056
:1016e000a04098005e0037004e009000200090005f
:1016f000c400dd0000782400008040001000780065
:101700006101b800c0ff2100010020000202780042
:101710000301780080017800010078000302620074
:101720000000610001002000c000dd00000020007a
:101730000001be006120b8000001710081817100cc
:1017400022079800330798002e009000be009000fa
:10175000c000dd00000020004e0190003001980024
:10176000410198004e009000200090004400dd00f0
:101770008080e8000078240000804000100078009d
:101780006101b800f0ff2000010020000202780093
:1017900003017800800178000100780003026200f4
:1017a0000000610001002000c000dd0000002000fa
:1017b0000001be006120b80000017100818171004c
:1017c00022079800330798004e00900030019000e7
:1017d000c00190002e029000be0290004628dd005d
:1017e000ca20de00810070004620dd0002004000bb
:1017f000838048004e01900030019800410198001c
:101800004e009000200090004400dd00e400400005
:101810000078240000804000100078004a00de00bc
:101820000100200020079800310798004e0090002a
:1018300030019000c00190002e009000be0090008a
:1018400002004000838048004e0190003001980063
:1018500041019800ce00900030c0b300a040980035
:101860001e009000e10f500004003a00ce009000ee
:1018700020c0b300904098006b003700ce0090006d
:1018800010c0b300904098004e00900020009000df
:101890004400dd00e60040000078240000804000a5
:1018a00010007800004078008080fb004e0090001f
:1018b000510098004e009000200090004400dd0090
:1018c000e60040000078240000804000100078000e
:1018d0004800de00004078008080fb004e00900051
:1018e000610098004e009000200090004400dd0050
:1018f000e8004000007824000080400010007800dc
:10190000004078008080fb004e009000710098003d
:101910004e009000200090004400dd00e8004000f0
:101920000078240000804000100078004800de00ad
:10193000004078008080fb004e0090000108980075
:101940004e009000200090004400dd00ea004000be
:1019500000782400008040001000780000407800eb
:101960008080fb004e009000110898004e0090000f
:10197000200090004400dd00ea00400000782400d0
:1019800000804000100078004800de000040780031
:101990008080fb004e009000210898004e009000cf
:1019a000200090004400dd00ec004000007824009e
:1019b0000080400010007800004078008080fb002c
:1019c0004e009000310898004e00900020009000da
:1019d0004400dd00ec00400000782400008040005e
:1019e000100078004800de00004078008080fb0096
:1019f0004e009000410898004e009000200090009a
:101a00004400dd00e4004000007824000080400035
:101a100010007800004078000080fb00ef006000bc
:101a20004e009000510898000080fa000000060067
:101a30000000fa000002eb008000eb00f21320002f
:101a4000030020000000eb00f8fd070045442400df
:101a500034332300230620001206200081002000da
:101a60000000eb00b3fe07000080fa000000060053
:101a70003600f800809fbe00829fbe00849fbe009b
:101a8000869fbe000000fa008860a90050208000f8
:101a900061006000e00f5000010032000a04a9005c
:101aa0005020800062006000e00f50000a00320009
:101ab0000021800062006000e00f5000030032004f
:101ac00010002000504888002024a90060902000c9
:101ad000d9fe07000a24a9000080fa004f03be00c7
:101ae0004f02be004f01be004f00be003600f9009d
:101af000004006000000fa008480a9000080fa007f
:101b0000004006000000fa008700a9000080fa00eb
:101b1000004006000800fa00008fbe00220798006f
:101b2000330798000002eb008000eb001e01be00ae
:101b30000000eb00bdfd07003e019000ae009000ec
:101b40000000eb00030007003064a8000080fa00ea
:101b5000000006000800fa0010079800210798000e
:101b6000320798001e0090004400dd00e4004000b1
:101b700000782400008040009000780000ff2f00d3
:101b8000808060002e009000808040001e00900049
:101b90004401dd0040782400000041000108780085
:101ba0000000eb00000f78000f0037001e007800e7
:101bb000630140001e00780000004000be0090005d
:101bc00000804000900078001e0090004300dd007f
:101bd00002004000000140000078240000004100a5
:101be000010878001e0fe8009e0078002e0090008b
:101bf000808f5000edff39000080fa0000000600e1
:101c00000000fa00881f78006ea09700e10f5000d6
:101c100004003a000041eb00018020001000200089
:101c200047fa07006ea09700e20f500034003a0018
:101c30005e489700e04f5000120032000e509700af
:101c40000084fb000e5897008080fb00803e20003f
:101c500000017800110009008200d800cf80de006a
:101c6000c2fa0700760144004211dd00e601570088
:101c700002814100e206b1000089be000040eb0095
:101c8000504f9f004e4897000004a200e04f5000c4
:101c9000160032005e4897000004a200e04f50009a
:101ca000120032000040eb00604f9f00c0f82f0090
:101cb0000e0040006c004000108f9f006e50970097
:101cc000704f9f000040eb0000579f000e509700a0
:101cd000e24f500003003e000e5097000040e80025
:101ce00000579f0010c0b300404f9f000e50970058
:101cf000e24f500002003a000000eb0060a79f0096
:101d00006ea09700e00f500032003a005ea09700ee
:101d1000e00f50002f003a00200f800000af9f001e
:101d20008ea897002ea89700808f500004003600e0
:101d30008ea897002ea8970000805000030037005f
:101d4000aea897000ea897000080500030af9f000b
:101d50008ea897001ea89700808f500004003600c0
:101d60008ea897001ea8970000805000030037003f
:101d70009ea897000ea897000080500040af9f00db
:101d80000ea8970010af9f00ef06b00020f92f00bb
:101d90000f0040008e0078004107b10036000900b6
:101da00031187800e006b1004e000700ef06b100e0
:101db000fea89700008020000080400050af9f00e8
:101dc0005ea897000041eb00800078001000200022
:101dd000dbf907004f0478000080fa0000000600dd
:101de0006e00fa00000178000eb8970020379800c6
:101df0001eb89700303798002eb09700beb09700fd
:101e0000402f9800512f98004eb09700deb09700f9
:101e1000602f9800712f98006eb09700feb0970069
:101e200000379800113798000eb09700202f9800c7
:101e30001eb09700302f98002eb8970040379800ba
:101e40004eb89700603798003eb89700503798001a
:101e50000000eb00402798000000eb0020279800ce
:101e60000000eb00302798000040eb00004f7800a6
:101e70000040eb00104798000ed89700204f9800c4
:101e80000ed89700007f980010c0b30050779800dc
:101e90000040eb00407798000040eb00107f980076
:101ea0000040eb00607798000040eb00207798003e
:101eb0000040eb00107798000ed89700007798004c
:101ec0000000eb0070179800360009003e197800fa
:101ed000e206b100ee06b100020078000080fa00d0
:101ee000000006000000fa00889fbe00aea8970020
:101ef0000ea897000080500000b79f002eb49700f6
:101f0000beb497000eb09700cf80de0017fa07002e
:101f10000001be000800be006afa0700f2f90700df
:101f20000000780020bf9f003eb89700cf80de0001
:101f30000efa07000004be000eb09700cf80de004e
:101f40000afa07000002be004eb09700deb097000c
:101f50000001be000400be005afa07000001be00e6
:101f60000800be0083f90700dff9070000007800d1
:101f700030bf9f00beb897001eb89700808f5000fa
:101f8000020034001eb8970030bf9f00beb8970013
:101f90001eb897000000ea00808f500003003d004b
:101fa0001eb897000000ea0030bf9f006eb4970093
:101fb000feb497008eb097001eb0970000805000ce
:101fc000cf80de00e9f907000001be000800be0076
:101fd0003cfa0700c4f907000000780040bf9f00ea
:101fe0000eb0970010b79f00ceb897003eb897008c
:101ff000808040002eb897000080400070af9f00a6
:10200000fea897000eb89700808f5000020036009f
:102010000eb8970070af9f00fea897000eb897000b
:102020000000ea00808f5000030031000eb89700d6
:102030000000ea0070af9f004f04be000080fa006d
:10204000000006000000fa00e0182000a010880040
:1020500000202100b01088000000eb0080108800f4
:102060000000eb009010880000202900b0108800cc
:102070000080fa00000006000000fa001602a80026
:1020800000000000b010800061006000e00f500010
:10209000fcff3a00c01080004300de006140600099
:1020a0000080fa00000006000000fa001622a800d6
:1020b00000000000b010800062006000e00f5000df
:1020c000fcff3a00c01080004300de006140600069
:1020d0000080fa00000006000000fa001642a80086
:1020e00000000000b010800064006000e00f5000ad
:1020f000fcff3a00c01080004400de006140600038
:102100000080fa00000006000200fa00004f78008c
:102110009e4078000180fb009010880000000000c5
:10212000c010800061006000e00f5000fcff3a002a
:102130000040eb000080fa00000006000000fa00fa
:1021400000000000c110800000002400008060003a
:10215000e00f5000fbff3a000040eb000080fa0067
:10216000000006000600fa0020479800314798005a
:102170004247980053479800f0ff0700beff070052
:102180002e409000e0ff0700ecff07003000070042
:10219000004f78003e409000dbff0700e7ff07009c
:1021a0004e409000d8ff0700e4ff0700280007001a
:1021b000004f78005e409000d3ff0700dfff07006c
:1021c000c5ff07002e4090006b0007001e407800fe
:1021d0000080fa00000006000800fa00004f7800b6
:1021e00011479800224798002307980064479800f9
:1021f000d2ff0700a0ff07001e407800c2ff0700c3
:10220000ceff07001e409000bfff0700cbff070076
:102210002e409000bcff0700c8ff0700a2ff070088
:102220001e4078000004a000b7ff0700c3ff0700ae
:10223000ee4090002e009000230007000b000700e6
:10224000a5ff07000040eb000080fa000000060038
:102250000000fa00c01080000080ea004f00de009d
:10226000004078000080fa00000006000000fa003c
:1022700016a2a8001682a80000000000b01080007e
:1022800070006000e00f5000fcff3a0016a2a900a9
:102290000040eb000080fa00000006000000fa0099
:1022a00016a2a9001682a80000000000b01080004d
:1022b00070006000e00f5000fcff3a000040eb00af
:1022c0000080fa00000006000400fa00000f780009
:1022d000214798000f0037001b0007009e00780080
:1022e000804878001e0fe800c110800000402000e8
:1022f00000806000e00f50000200320000c0eb00e0
:102300000f0037002e409000e04f500001003200d7
:10231000e2ff07002e4090000080fb000000ea0072
:102320004f00de0000407800ae4090008140e900a0
:1023300021479800e04f5000e7ff3a000040eb00d3
:102340000080fa00000006000000fa001662a800f3
:102350000000000000000000c0108000620060006b
:10236000e00f5000fcff3200801080000040780039
:102370000080fa00000006000200fa00004f78001a
:102380006eff07003cff0700c110800000402000e6
:1023900000806000e00f50000200320000c0eb003f
:1023a0002b0037001e40780057ff0700e04f500019
:1023b00002003200d0cfb300250037005fff0700d6
:1023c000c11080000040200000806000e00f50003d
:1023d0001200320000c0eb001d00370032ff070082
:1023e000c11080000040200000806000e00f50001d
:1023f0000200320000c0eb00150037001e407800dc
:1024000041ff0700e04f500002003200d0cfb30080
:102410000f00370049ff07000100370000000000ef
:102420008bff0700e04f5000ecff3a002aff070047
:10243000c11080000040200000806000e00f5000cc
:102440000200320000c0eb00010037000040eb004a
:102450000080fa00000006003a00fa00881f7800a9
:1024600000047800211f9800321f9800431f980035
:102470002e1890003007980001208000f08f2f0068
:1024800080806000004020000080700000208800f4
:102490000000000001208000000e2000808060000d
:1024a00000082000808f5000faff3a00b0f90700c2
:1024b00031208000f0ff21008080600000002200b9
:1024c00000807000302088001400200011002000df
:1024d000f2ff2f00030020000000eb00c2fa07000b
:1024e0000000eb00000f7800170037000e18900076
:1024f0009e18900000014000818148001e00e80005
:102500000000400000004700300090002060900074
:102510000080fb0001002000020040008380480092
:1025200010079800210798008002eb00140020009b
:102530008000eb001e019000ae0190001e007800ac
:10254000e7f907001e0fe8003e0090009e0f5000c4
:10255000e6ff3c0001208000f08f2f00008060002b
:10256000002088000000000001208000000e2000f4
:1025700000806000e00f5000fbff3a000000eb001d
:102580005021880050218000402188004021800097
:1025900010218800102180000021880030e4a8006c
:1025a00031e4a900802180003000b3008021880040
:1025b0008121800000302000008070008021880090
:1025c0000e0078006000b00016000900301c780092
:1025d000e802b100080078004f0478000080fa009b
:1025e000000006000200fa00000f78006ea09700bd
:1025f0000000e80000004000e600570000804000b6
:10260000e002b1001e0878006ea097000000e8000c
:1026100060a79f000080fa00000006000c00fa008e
:1026200050488000e10f50002d003a0060488000c3
:102630007148800000407800634060004047980087
:10264000ef02b00020fd2f000f0040008e00780048
:102650004103b1001600090031187800e002b10012
:102660004e40900060000700ef02b1003007980074
:10267000be00900010c0b300c06098000149800007
:102680003e009000011098000000eb00000f780061
:102690000c0037009e0078006580400080004000fc
:1026a0006090200000804000900078003e01900083
:1026b0001e00780000004000000041000108780082
:1026c0001e0fe8009e0078003e0090000010900071
:1026d000808f5000efff39000000eb005048880069
:1026e0000000eb0010079800390037001e00900032
:1026f0000000e80000004000e600570000804000b5
:1027000010a8970030609000e04f50002d0032007c
:102710001e0090000000e80000004000e6005700a6
:102720000080400090a897000040eb00b060980047
:102730003eb89700ceb89700000140008181480064
:102740001e0090000000e80000004000e600570076
:102750000080400010a89700206090000080fb00df
:102760000000e800cf80de000200400083804800c7
:1027700040079800510798001e0090000000e800f4
:1027800000004000e60057000080400010a89700bd
:10279000f00040001e0090000000e8000000400033
:1027a000660157000000410010a89700001090003b
:1027b00081017800000178004e009000de0090005a
:1027c000d4fc07001e0090000000e80010079800ed
:1027d000eea097001e009000808f5000c3ff3c00c9
:1027e0000080fa00000006000600fa00404798004a
:1027f0000000eb00000f7800100037001e00e8001a
:1028000000004000e60057000080400010a897003c
:10281000a06090004e40900080cf500006003a002b
:102820001e00e80000004000e60057000080400065
:1028300090a89700110798001e0fe8006ea097005f
:102840009e0f5000edff3c001e0090000080fa003b
:10285000000006003a00fa00321f9800431f98005b
:10286000be189000210798009e789000616f980034
:1028700011002000010f78001a0009003e187800ae
:102880006003b1006e03b1000080fa000000060092
:102890000200fa000040eb00004f780063003700b0
:1028a0009e4078000180fb00630040000000400073
:1028b000e60057000080400050a0970010407800cc
:1028c000e04f5000580032009e4078000180fb002d
:1028d0006300400000004000e60057000080400018
:1028e00050a09700204090000004a200e04f50004c
:1028f000030032000000eb0030a79f000200370009
:102900001000200030a79f009e4078000180fb004f
:102910006300400000004000e600570000804000d7
:1029200050a097003040900030f79f009e40780004
:102930000180fb006300400000004000e6005700fb
:102940000080400050a097004040900040f79f005a
:102950009e4078000180fb006300400000004000c2
:10296000e60057000080400050a097003000900023
:1029700030bf9f009e4078000180fb006300400054
:1029800000004000e60057000080400050a0970083
:102990004000900040bf9f003ea09700e00f500015
:1029a0000f003a00beb997004ef19700bef09700b5
:1029b0002ef0970014c0b30007fe07009e40780079
:1029c0000180fb006300400000004000e60057006b
:1029d00000804000d0a0970010c0b3009040980045
:1029e0003ea09700e10f500006003a004eb8970055
:1029f000904178004ef19700bef097002ef09700be
:102a0000d8fd07009e4078000180fb006300400075
:102a100000004000e600570000804000d0a0970072
:102a20000040eb00804878001e4fe8001e40780010
:102a30008080fb004ea09700808f500098ff3500eb
:102a40000080fa00000006000200fa00000f780083
:102a50004ea097006300400000004000e6005700d1
:102a6000008040006003b1001e0878004ea097006f
:102a70000000e80040a79f000080fa000000060068
:102a80003800fa00221f9800331f9800ce70900083
:102a90004147980011c0b300114798008040eb00f7
:102aa000014f78008040eb00514798008040eb00d8
:102ab00021479800be18900041079800110020009f
:102ac00051079800190009003e1878004003b10032
:102ad0004e03b1000080fa00000006000200fa0078
:102ae000000f78007ea097006600400000004000c4
:102af000e6005700008040004003b1001e08780047
:102b00007ea097000000e80070a79f000080fa00f8
:102b1000000006000400fa00100798000000eb0017
:102b2000000f7800130037009e0078006680400098
:102b300000004000e60057000080400060a09700c1
:102b4000c04090001e0090005040900080cf500088
:102b500007003a009e0078006680400000004000b8
:102b6000e60057000080400060a097000500370095
:102b70001e0fe8007ea097009e0f5000eaff3c0069
:102b80001e0090000080fa00000006000600fa0017
:102b90004000200000af9f000000eb00000f780015
:102ba000390037009e007800668040000000400039
:102bb000e600570000804000e0a097001107980051
:102bc0001e00900010407800e04f50002d003200b1
:102bd0004f03b000c0fc2f000f0040008e007800b3
:102be000a103b10019000900311878004003b100b9
:102bf0001e009000c7ff07004f03b1002007980098
:102c0000ae0090001e009000808f50001d0032002a
:102c10002e00900010409000e04f5000190032004c
:102c20002e00900020409000e04f50001500320030
:102c3000ae0090000040eb00904098001e00900015
:102c400040409000ae009000e04098001e009000d0
:102c500030409000ae009000b04098009e00900080
:102c60000040eb00804878001e009000204090005b
:102c7000e04f5000030032009e0090000040eb0047
:102c8000a04098001e0fe8007ea097009e0f500005
:102c9000c4ff3c000080fa0000000600d800fa00e3
:102ca000422a8400532a84000e00780074ff070033
:102cb00000802000190009003e1878004e03b10082
:102cc000400320000e004000622a8400732a840022
:102cd000e0fe0700418320000e0178004203b000af
:102ce0001a000900b2187800a00620000e0040006b
:102cf0002f02b000e1fd2f008f80400062552800b8
:102d000010000900b21878002102b10034fc07005d
:102d10002f02b100a08620008e007800a106b0002e
:102d20003600090031187800812a8400922a840034
:102d3000a32a84000e007800c7fd0700828d2000c2
:102d4000160009003e197800ee02b1004f03b000f2
:102d5000c0fc2f000f004000018020001900090076
:102d6000311878004003b100e08920005bff0700c4
:102d70004f03b1006f03b000a0fc2f000f00400014
:102d8000428320001a000900321878006003b10065
:102d9000a08620002cff07006f03b100ef02b000f7
:102da00020fd2f000f004000818d2000160009003b
:102db00031187800e002b1008087200009fe07008a
:102dc000ef02b1000080fa00000006000000fa00e7
:102dd0004f03b000c0fc2f000f0040000180200016
:102de00019000900311878004003b10067ff07009f
:102df0004f03b1006f03b000a0fc2f000f00400094
:102e0000418320001a000900311878006003b100e6
:102e10009ffe07006f03b100ef02b00020fd2f00fe
:102e20000f004000818d2000160009003118780045
:102e3000e002b100f9fd0700ef02b100ef06b000bb
:102e400020f92f000f004000a18620003600090065
:102e500031187800e006b10069fb0700ef06b10009
:102e60000080fa00000006000000fa006002200066
:102e7000303a8800213a8000f0f32f000080600093
:102e8000203a8800213a800000fe2f000080600078
:102e9000203a88003200200080072000a10920008d
:102ea0003374200080497800814978008249780095
:102eb000120020006004200071052000237420000f
:102ec000804978008149780082497800000000003c
:102ed000113a80000000270080806000000023007d
:102ee000808f5000faff3a0000000000113a800085
:102ef0000002200000806000e00f5000fbff320065
:102f00000080fa00000006000000fa000000eb005c
:102f1000800888000000eb00300888001061a900dc
:102f20001021a900a00f2000600888003105800052
:102f3000f0ff280080806000000021000080700009
:102f40003005880084e0a90094e0a8001081a80062
:102f500010a1a90011e1a8000080fa0000000600fd
:102f60000a00fa0000802000000f78000000eb004b
:102f7000100798000000280020079800b0cb200020
:102f80003007980020002000400798004e02900073
:102f9000be0190002e0190009e0090001e0078005f
:102fa00061f50700ce21a900ce01a900ce61a900dc
:102fb000ce41a90040f02f006bf507000041eb0067
:102fc00001802000100020005df507000041eb00ab
:102fd000018020002000200059f507000080fa0041
:102fe000000006000000fa00601980000080eb007d
:102ff00060198800601b80000080eb00601b880067
:10300000e1a1a900e161a800e181a800e101a90016
:10301000e121a800e141a800e0e1a900e0c1a90088
:10302000e041a900e301a800e2e1a800e281a900d3
:10303000e2a1a800e2c1a8000080eb00300f8800e8
:103040000000eb00200f88000080fa00000006005e
:103050000000fa000000eb00f01688000000eb0012
:1030600020178800de82a800dea2a800de86a90064
:10307000dea6a900c662a800c682a800c6a2a80053
:10308000c6c2a800c702a800c7c2a800d202a800f2
:10309000d222a800d242a800d262a800d282a900ff
:1030a000d2a2a900d2c2a900d2e2a9000080fa00ef
:0430b0000000060016
:020000040000fa
:1030b4002209000002000000000000008047000018
:1030c4004000000000000000060900001c00000091
:1030d40000000000000800000601000000000000dd
:0430e40000000000e8
:020000040000fa
:1030e8000000fa005eff070085ff0700d6ff070013
:1030f80099ff0700b9ff0700d0fb07000080fa001e
:10310800000006000400fa00000f7800110798007c
:10311800f3ff0700dffe07002aff0700feff370066
:020000040000fa
:0200000401f009
:04000c00f8ff0000f9
:020000040000fa
:0200000401f009
:040010007dff000070
:020000040000fa
:0200000401f009
:040014007fff00006a
:020000040000fa
:0200000401f009
:04001800f8ff0000ed
:020000040000fa
:0200000401f009
:04001c00dfff000002
:00000001FF
